:100000000C948E030C94B6030C94B6030C94B603B4
:100010000C94B6030C94B6030C94B6030C94B6037C
:100020000C94B6030C94B6030C9481070C94F0075F
:100030000C94B6030C94B6030C94B6030C94B6035C
:100040000C94B6030C94B6030C94B6030C94B6034C
:100050000C94B6030C94B6030C94B6030C94220AC9
:100060000C94B6030C94B6030C94B6030C94B6032C
:100070000C94B6030C94B6030C94B6030C94B6031C
:100080000C94B6030C94B6030C94B6030C94B6030C
:100090000C94B6030C94B6030C94B6030C94B603FC
:1000A0000C94B6030C94B6030C94B6030000000045
:1000B000003E5B4F5B3E3E6B4F6B3E1C3E7C3E1CEE
:1000C000183C7E3C181C577D571C1C5E7F5E1C0034
:1000D000183C1800FFE7C3E7FF0018241800FFE7EB
:1000E000DBE7FF30483A060E2629792926407F05AE
:1000F0000507407F05253F5A3CE73C5A7F3E1C1CC4
:1001000008081C1C3E7F14227F22145F5F005F5F83
:1001100006097F017F006689956A6060606060946F
:10012000A2FFA29408047E040810207E2010080874
:100130002A1C08081C2A08081E101010100C1E0C7F
:100140001E0C30383E3830060E3E0E060000000011
:100150000000005F00000007000700147F147F14F8
:10016000242A7F2A1223130864623649562050003D
:1001700008070300001C2241000041221C002A1C29
:100180007F1C2A08083E0808008070300008080814
:100190000808000060600020100804023E51494534
:1001A0003E00427F400072494949462141494D3352
:1001B0001814127F1027454545393C4A49493141B9
:1001C000211109073649494936464949291E000087
:1001D00014000000403400000008142241141414DC
:1001E0001414004122140802015909063E415D59C8
:1001F0004E7C1211127C7F494949363E41414122D1
:100200007F4141413E7F494949417F090909013EFA
:10021000414151737F0808087F00417F4100204021
:10022000413F017F081422417F404040407F021C33
:10023000027F7F0408107F3E4141413E7F0909094A
:10024000063E4151215E7F09192946264949493216
:1002500003017F01033F4040403F1F2040201F3FDC
:100260004038403F63140814630304780403615961
:10027000494D43007F4141410204081020004141A3
:10028000417F04020102044040404040000307084F
:100290000020545478407F2844443838444444284B
:1002A000384444287F385454541800087E090218F2
:1002B000A4A49C787F0804047800447D400020407A
:1002C000403D007F1028440000417F40007C0478BE
:1002D00004787C080404783844444438FC18242406
:1002E0001818242418FC7C08040408485454542486
:1002F00004043F44243C4040207C1C2040201C3C03
:100300004030403C44281028444C9090907C4464F9
:10031000544C44000836410000007700000041368C
:10032000080002010204023C2623263C1EA1A16112
:10033000123A4040207A3854545559215555794144
:100340002154547841215554784020545579400C1B
:100350001E527212395555555939545454593955FC
:100360005454580000457C410002457D420001453F
:100370007C40F0292429F0F0282528F07C545545AC
:10038000002054547C547C0A097F4932494949323F
:100390003248484832324A4848303A4141217A3A54
:1003A00042402078009DA0A07D39444444393D401E
:1003B00040403D3C24FF2424487E4943662B2FFCCB
:1003C0002F2BFF0929F620C0887E09032054547979
:1003D000410000447D413048484A32384040227A4A
:1003E000007A0A0A727D0D19317D2629292F2826C7
:1003F0002929292630484D402038080808080808CF
:100400000808382F10C8ACBA2F102834FA00007B27
:10041000000008142A142222142A1408950022002D
:1004200095AA005500AAAA55AA55AA000000FF00E7
:10043000101010FF00141414FF001010FF00FF1024
:1004400010F010F0141414FC001414F700FF000056
:10045000FF00FF1414F404FC141417101F10101FD5
:10046000101F1414141F00101010F0000000001FC3
:10047000101010101F10101010F010000000FF10CE
:100480001010101010101010FF10000000FF1400CA
:1004900000FF00FF00001F10170000FC04F41414FC
:1004A0001710171414F404F40000FF00F7141414C8
:1004B00014141414F700F7141414171410101F1048
:1004C0001F141414F4141010F010F000001F101F6B
:1004D0000000001F14000000FC140000F010F010D9
:1004E00010FF10FF141414FF141010101F00000050
:1004F00000F010FFFFFFFFFFF0F0F0F0F0FFFFFF54
:100500000000000000FFFF0F0F0F0F0F38444438AA
:10051000447C2A2A3E147E02020606027E027E02E5
:1005200063554941633844443C04407E201E200604
:10053000027E020299A5E7A5991C2A492A1C4C7241
:1005400001724C304A4D4D303048784830BC625AC8
:10055000463D3E494949007E0101017E2A2A2A2A58
:100560002A44445F444440514A444040444A514034
:100570000000FF0103E080FF000008086B6B0836F5
:1005800012362436060F090F060000181800000066
:100590001010003040FF0101001F01011E00191D55
:1005A0001712003C3C3C3C0000000000F0F89C8E20
:1005B0008783878E9CF8F00000FEFF03030303038C
:1005C000070EFCF80000FEFF0303030303070EFC05
:1005D000F80000FFFF00000000000000FFFF000027
:1005E000FEFF8383838383C7EE7C380000F8FC0E14
:1005F00007030303070EFCF800003F7FE0C0808084
:10060000C0E07F3FFFFF01010101010101FFFF0089
:1006100000FFFF0C0C0C0C1C3E77E3C100007FFFB9
:10062000C0C0C0C0C0E0703F1F00001F3F70E0C0EE
:10063000C0C0E0703F1F00007FFFC1C1C1C1C1E366
:10064000773E1C00001F3F70E0C0C0C0E0703F1F3D
:10065000000000000001FFFF01000000D5F08D1434
:10066000A1C881CFD9F1AF2000412920426F756E1A
:10067000747920422920636174427572737400207A
:10068000546F6D6D6F2064656464206D3921005472
:100690004F4D4D4F2053494D554C41544F522030F2
:1006A0002E3100080B0002020200000904000001C4
:1006B00002020000052400100105240101010424A8
:1006C0000206052406000107058103100040090405
:1006D0000100020A000000070502024000000705B1
:1006E00083024000000403090412010002EF02012A
:1006F00040412336800001010203014172647569A3
:100700006E6F204C4C430041726475696E6F204CD3
:10071000656F6E6172646F009F0A370E11241FBEF1
:10072000CFEFDAE0DEBFCDBF11E0A0E0B1E0E4E85A
:10073000F1E202C005900D92A636B107D9F725E087
:10074000A6E6B1E001C01D92AE3EB207E1F713E0AC
:10075000CDE8D3E004C02197FE010E94BD0ECC3845
:10076000D107C9F70E94CA0A0C94B5100C94000076
:10077000E0E9F1E0A0E0B8E000800EBC8111012CBE
:100780001197A0FDFDCF0192B9F70DB40895FC01BA
:1007900080918F01882311F13FB7F89482E0809314
:1007A000E9002091F200822F90E01816190614F447
:1007B00081E090E0882339F0289844E640938E0148
:1007C0004091F1004083222339F02091F200211161
:1007D00003C02BE62093E8003FBF08958FEF9FEF03
:1007E00008952FB7F89483E08093E9009091E80092
:1007F000892F807295FF04C09091F20080E4891BDC
:100800002FBF08958091860181110DC082E08093F1
:10081000820184E08093830110928501109284010B
:1008200081E08093860182E891E00895CF93DF9381
:100830001F92CDB7DEB76983DC01ED91FC91028098
:10084000F381E02D41E050E0BE016F5F7F4F0995DD
:100850000F90DF91CF91089583E08093E90080911C
:10086000F200882319F08AE38093E80008950E943B
:10087000F10390E00895CF93DF931F92CDB7DEB7D9
:10088000FC018485958597FD08C02FEF3FEF3587E4
:1008900024870F90DF91CF910895CE0101960E9499
:1008A000C703019719F4898190E0F3CF8FEF9FEF91
:1008B000F0CF0F931F93CF93DF931F92CDB7DEB787
:1008C0008C01FC018485958597FF0BC0CE010196B4
:1008D0000E94C703019771F4898190E0F801958720
:1008E0008487F801848595850F90DF91CF911F91C2
:1008F0000F9108958FEF9FEFF1CFFC0184859585CF
:1009000097FD0BC09FB7F89482E08093E900809137
:10091000F2009FBF90E0019608959FB7F89482E09F
:100920008093E9008091F2009FBF90E0089540918C
:100930007C0150917D0120917A0130917B01421719
:100940005307B4F49091E8009570E1F39091E800BA
:1009500092FD19C08093F10080917C0190917D01FE
:1009600001968F739927892B19F48EEF8093E800F5
:1009700080917C0190917D01019690937D018093FF
:100980007C0181E0089580E00895DF92EF92FF926C
:100990000F931F93CF93DF93D82E8A01EB017B0136
:1009A000E40EF51ECE15DF0559F0D7FE12C0FE018C
:1009B00084910E94970421968111F4CF0FEF1FEFCD
:1009C000C801DF91CF911F910F91FF90EF90DF90C1
:1009D00008958881EECF0F931F93CF93DF931F92DB
:1009E000CDB7DEB782E0898342E450E063EA76E087
:1009F00080E80E94C5040E940204DC0112960D9159
:100A00001C910115110589F0D801ED91FC9102802E
:100A1000F381E02DBE016F5F7F4FC801099597FDFF
:100A200004C0F80100851185ECCF89810F90DF911A
:100A3000CF911F910F910895615030F02091F100F6
:100A4000FC0120830196F8CF289884E680938E01DC
:100A500008953FB7F8948091760190917701A09125
:100A60007801B091790126B5A89B05C02F3F19F0F8
:100A70000196A11DB11D3FBFBA2FA92F982F88271E
:100A8000BC01CD01620F711D811D911D42E0660FF9
:100A9000771F881F991F4A95D1F708958F929F92CB
:100AA000AF92BF92CF92DF92EF92FF926B017C01E7
:100AB0000E9429054B015C01C114D104E104F10439
:100AC000B9F00E942905681979098A099B09683ECD
:100AD00073408105910580F321E0C21AD108E10835
:100AE000F10888EE880E83E0981EA11CB11CE4CFAB
:100AF000FF90EF90DF90CF90BF90AF909F908F903E
:100B000008958F929F92AF92BF92CF92DF92EF9211
:100B1000FF920F931F93CF93DF936C017B018A01A8
:100B200080910D01882309F45CC080918F01882396
:100B300009F457C08091810180FF05C08091E000D9
:100B400082608093E000E801B12C8AEFA82E93E048
:100B5000892E2AE3922E209711F4BB20D9F10E940E
:100B6000F10381110AC0AA94AA20D9F161E070E0D2
:100B700080E090E00E944E05EECF8C171D0611F02C
:100B80000CF08C2F9FB7F8948092E9002091E80038
:100B900025FD02C09FBFDFCF282F30E0C21BD30B43
:100BA000F701815020F041914093F100FACFE20E1D
:100BB000F31EBB2021F09092E800B12CEBCF809186
:100BC000E80085FDE7CF9092E800BB24B39420971E
:100BD00009F3F3CF5D9884E6809380011016110627
:100BE0003CF081E090E0F6019383828310E000E026
:100BF000C801DF91CF911F910F91FF90EF90DF908F
:100C0000CF90BF90AF909F908F900895AF92BF927A
:100C1000CF92DF92EF92FF920F931F93CF93DF93C8
:100C20006C017B018B01040F151FEB015E01AE18F7
:100C3000BF08C017D10759F06991D601ED91FC9119
:100C40000190F081E02DC6010995892B79F7C50146
:100C5000DF91CF911F910F91FF90EF90DF90CF9098
:100C6000BF90AF90089542E050E069E371E086EEF6
:100C700095E00C940606CF93DF93FC0144815581E7
:100C80006081718186EE95E00E940606EC010E946B
:100C900033068C0F9D1FDF91CF9108952D9A0895F3
:100CA000BC0190E080E00C944E058FB18095807F70
:100CB000669B88601C9B84600895AF92BF92CF9220
:100CC000DF92EF92FF920F931F93CF93DF936D30DC
:100CD00079F0C0916E01D0916F016A30B1F4109239
:100CE0006D0110926C012896D0936F01C0936E0134
:100CF00081E090E0DF91CF911F910F91FF90EF90F5
:100D0000DF90CF90BF90AF90089540916C015091CB
:100D10006D0185E0689FF0011124E455FF4F9A01B1
:100D2000C12C80E1E82EA5E070E0CA1621F0CF01C9
:100D300001967491FC0110E000E0B72FB170DB2E3A
:100D400020383105D0F4CE01800F911F80349105F9
:100D5000A0F461E081FD64E080FD660F82FD629594
:100D6000887FE89ED0011124A20FF62EA057BE4F17
:100D70008C91DD20A9F0862B8C9376950F5F1F4F09
:100D800008301105D1F6C3942F5F3F4F86E0C8129B
:100D9000CACF4A5F5F4F50936D0140936C01A8CF5B
:100DA000F0948F21E9CF0F931F93CF93DF938C01A2
:100DB000D0E0C0E0F801EC0FFD1F6491662341F024
:100DC00086EE95E00E945D06892B11F02196F2CF08
:100DD0000E9433068C0F9D1FDF91CF911F910F91C1
:100DE000089580E00C94B803089590E080E00895A1
:100DF0000C94700E0F931F93CF93DF93EC018881B7
:100E00009981009759F02A813B812617370730F0E6
:100E100081E0DF91CF911F910F9108958B016F5F5A
:100E20007F4F0E94E80F009759F0998388831B83B6
:100E30000A832C813D81232B59F7FC011082E8CFD6
:100E400080E0E7CFCF93DF93EC0188819981009711
:100E500011F00E945F0F198218821D821C821B8272
:100E60001A82DF91CF910895EF92FF920F931F9313
:100E7000CF93DF93EC017B018A01BA010E94FA064D
:100E800081110BC0CE010E942207CE01DF91CF91CC
:100E90001F910F91FF90EF9008951D830C83B70170
:100EA000888199810E94AE10F0CFFB010190002053
:100EB000E9F73197AF01461B570B0C943407FB0140
:100EC000DC0111961C921E9213961C921E92129790
:100ED00015961C921E9214978617970749F0608109
:100EE00071816115710521F0448155810C9434079D
:100EF0000895FC0180819181009711F00C945F0F9F
:100F000008951F920F920FB60F9211248F939F9303
:100F10008091E1009091E100937F9093E10083FF45
:100F20000FC01092E90091E09093EB001092EC005A
:100F300092E39093ED0010928F0198E09093F0006F
:100F400082FF22C093E09093E9009091F2009923F0
:100F500019F09AE39093E80090918001992341F071
:100F600090918001915090938001911101C05D9A00
:100F700090918E01992341F090918E019150909320
:100F80008E01911101C0289A84FF18C08091E2005F
:100F90008E7E81608093E2008091E1008F7E80935D
:100FA000E100809181018E7E8061809381019F911B
:100FB0008F910F900FBE0F901F90189580FFF7CF65
:100FC0008091E2008E7E80618093E2008091E1005A
:100FD0008E7E8093E100809181018E7E8160E5CFDD
:100FE0001F920F920FB60F921124CF92DF92EF92C1
:100FF000FF920F931F932F933F934F935F936F93A2
:101000007F938F939F93AF93BF93EF93FF93CF9370
:10101000DF93CDB7DEB76C97DEBFCDBF1092E9008E
:101020008091E80083FF25C068E0CE0145960E94CC
:101030001C0582EF8093E8008D8987FF39C090916D
:10104000E80090FFFCCF982F907609F034C19E897C
:101050004F89588D2F89F88C911131C0803861F5F6
:1010600080917F018093F1001092F1008EEF8093C8
:10107000E8006C960FB6F894DEBF0FBECDBFDF91CF
:10108000CF91FF91EF91BF91AF919F918F917F9100
:101090006F915F914F913F912F911F910F91FF9011
:1010A000EF90DF90CF900F900FBE0F901F9018958C
:1010B0009EEF9093E800C7CF1092F100D5CF91300A
:1010C00059F48111D3CF4130510581F680917F01D0
:1010D0008D7F80937F01CACF933049F48111C6CFB1
:1010E0004130510519F680917F018260F2CF953031
:1010F00041F48091E80080FFFCCF20682093E3005A
:10110000B5CF963009F0A9C00B8D1C8D22E010924E
:10111000E90010927D0110927C01F2122EC0109213
:101120007B0110927A010E94EB041F8299E099835F
:10113000FA8291E09E8390EA98879AEF99872091AE
:101140007C0130917D01275F3F4F3C832B838D8352
:101150001092E90010927D0110927C0110937B01A6
:1011600000937A0149E050E0BE016F5F7F4F80E05D
:101170000E94C5040E94EB0479CF10937B01009379
:101180007A010E940204DC0112960D911C91011556
:10119000110509F451C1D801ED91FC910480F5814C
:1011A000E02DBE016B5E7F4FC8010995009709F0E5
:1011B0003EC1F80100851185EACFF3E0FF120EC0B1
:1011C0008F89882309F440C0823061F440E860E1EF
:1011D00087E097E00E946C0A811148CF81E28093FA
:1011E000EB0047CF813029F440E86BE08BEF96E0CD
:1011F000F1CF833099F70E940204DC011296ED9042
:10120000FC908E010F5F1F4F6801E114F10479F02B
:10121000D701ED91FC910680F781E02DB801C7015F
:101220000995080F111DF701E084F184EECFD80174
:101230001C92F60101900020E9F73197BF016C196B
:101240007D0940E0C601C6CF65EE76E0FB01449122
:1012500050E080E80E94C50409CF973009F4BECF62
:10126000983021F481E08093F10000CF993009F0AB
:10127000FDCE837009F0B2CFE5E1F1E081E031E02D
:1012800096E32191222371F08093E9003093EB00E3
:10129000DF0111972C912093EC009093ED008F5F6C
:1012A000873079F78EE78093EA001092EA008F8901
:1012B00080938F01DBCE8B8D9C8D1092E900109274
:1012C0007D0110927C0190937B0180937A01898D3E
:1012D000811192C08E899D89913A49F4813209F039
:1012E0007DCF47E050E066E071E080E0B3CF91321F
:1012F00009F074CF833269F48F89988DB0E0A0E053
:101300008093020190930301A0930401B09305011F
:10131000ADCE803269F48091E80082FFFCCF67E0B7
:1013200086E091E00E941C058BEF8093E8009ECE42
:10133000823209F09BCE8F8980930D01EEEFFFE79B
:10134000859194918B3F9C4D51F1E0E0F8E08091C4
:10135000060190910701A0910801B0910901803B1D
:101360009440A105B105F1F480910D0180FD1AC0F2
:10137000EE3F8AE0F80789F587E797E79183808356
:101380008091600080937E0188E19BE00FB6F89425
:10139000A895809360000FBE9093600067CEEEEF3B
:1013A000FAE0D5CF808191818737974709F05ECEEB
:1013B000A8958091600088618093600080917E0193
:1013C00080936000EE3F2AE0F20789F08091FE0AE8
:1013D0009091FF0A9183808349CE808191818737E4
:1013E000980751F29093FF0A8093FE0AC5CF10929E
:1013F000FF0A1092FE0A3ACE0E940204DC01129605
:101400000D911C910115110509F4E8CED801ED915B
:10141000FC910190F081E02DBE016B5E7F4FC80111
:101420000995811123CEF80100851185EBCF18169F
:1014300019060CF41BCED2CEF1E0FF12BECE69EE3F
:1014400076E004CF1F920F920FB60F9211242F93C4
:101450003F938F939F93AF93BF938091720190912D
:101460007301A0917401B09175013091710123E075
:10147000230F2D3758F50196A11DB11D2093710141
:101480008093720190937301A0937401B0937501DE
:101490008091760190917701A0917801B0917901C6
:1014A0000196A11DB11D8093760190937701A093C1
:1014B0007801B0937901BF91AF919F918F913F9146
:1014C0002F910F900FBE0F901F90189526E8230FB5
:1014D0000296A11DB11DD2CFEF92FF920F931F93E1
:1014E000CF93DF93F82E192FE62E042F81E0860F7D
:1014F000880F0E94970483E00E949704CF2DD12F7C
:10150000EC0EFD2EF11CCE15DF05B9F007FF13C060
:10151000FE0184910E949704182F80E00E94970496
:10152000812321968111EFCFDF91CF911F910F91F0
:10153000FF90EF9008958881EDCF81E0F5CFE0E94D
:10154000F5E01382128288EE93E0A0E0B0E084839D
:101550009583A683B7838FE191E0918380838FEF9A
:101560009FEF95878487E6EEF5E01382128281E390
:1015700091E091838083E0EEF5E011821082138286
:1015800012821582148250E040E06BE371E0CF01DB
:101590000C943407CF93DF93CDB7DEB76E970FB6B9
:1015A000F894DEBF0FBECDBF789484B5826084BD51
:1015B00084B5816084BD85B5826085BD85B5816057
:1015C00085BD80916E00816080936E0010928100D5
:1015D0008091810082608093810080918100816090
:1015E0008093810080918000816080938000809151
:1015F000910082608093910080919100816080933E
:101600009100809190008160809390008091C10052
:1016100084608093C1008091C10082608093C1008A
:101620008091C10081608093C1008091C30081607E
:101630008093C3008091C00082608093C00080913D
:10164000C20081608093C20080917A0084608093A0
:101650007A0080917A00826080937A0080917A008B
:10166000816080937A0080917A00806880937A000C
:1016700010928F0110927F01109281018091D7000A
:1016800081608093D70080EA8093D80089B580611B
:1016900089BD89B5826089BD09B400FEFDCF61E0D6
:1016A00070E080E090E00E944E058091D8008F7C31
:1016B00080618093D8008091E000807F8093E0007B
:1016C0008091E1008E7E8093E1008DE08093E200C6
:1016D000559A209A81EC80937C0085B1806F85B902
:1016E00084B1877E84B984B1876E84B95E9A5F982D
:1016F0008AB1806D8AB9769A6E9881B3806F81BB0A
:10170000899880B38D7080BB80E58CBD81E08DBDF4
:1017100085E090E00E9450065F9A85E090E00E948C
:1017200050065E985C98ECE5F6E089E696E0249138
:101730002EBD00000DB407FEFDCF31968E179F071A
:10174000B1F75C9A81E880936400809165008160C4
:10175000809365000E94F1060E94550687FF15C020
:101760005C9885EA8EBD00000DB407FEFDCF5C9A43
:101770002E982F982D988091640080628093640049
:1017800081E083BF889513BEFCCF0E94550682FF7F
:1017900048C02D980E94550684788438E1F40E9450
:1017A0004E0688EC90E00E9450062F9882E090E070
:1017B0000E94700E8F3F29F06FEF82E090E00E9450
:1017C000780E84EF91E00E9450062F9A0E945506F1
:1017D00084788438D9F30E94550684718431E1F409
:1017E0000E944E0688EC90E00E9450062E9882E0FF
:1017F00090E00E94700E882329F060E082E090E083
:101800000E94780E84EF91E00E9450062E9A0E946A
:10181000550684718431D9F388EC90E00E9450061B
:10182000B4CF0E944E0682E090E00E94F806882322
:1018300009F44BC03E9A3F9A81E090E00E94F8067E
:10184000282F2470722E81FF11C021112E9801EFD4
:101850001FEF68E0E62EF12C78E5672E0E94550612
:1018600086FF36C02E9A2F9A0E944E0682E390E0A1
:101870000E9450060E9455068111F8CF8824839457
:1018800080E9C82E81E0D82E90E0E92E90E0F92E74
:101890009924939428E0A22EB12C8FB7F89440910C
:1018A00072015091730160917401709175018FBF45
:1018B00080916801882309F4CEC010926801E11478
:1018C000F10459F30E940000E8CF3E983F98B4CF4E
:1018D000772029F00430110511F42E9A2F9881E019
:1018E0000E94B803980117FF04C022273327201B4A
:1018F000310B27703327C80117FD079653E09595E4
:1019000087955A95E1F717FF05C00197A701421B7C
:10191000530B9A01BC017695762F662777956795CC
:1019200060577E4FB0E0A0E02701421A530A8E3F75
:101930005FEF950709F43FC06A9E50016B9EB00CA3
:10194000112450E040E0F501E455FA4F5F014B01EE
:10195000F0E88F0E911C8F3F980791F0F501E40F8E
:10196000F51FE4916B01C40ED51EF0E01F01022E9D
:1019700001C0220C0A94EAF7F60134882328248A4D
:101980002115310599F0F501E40FF51FE49164018B
:10199000C40ED51EF0E01F01042C02C0359427941C
:1019A0000A94E2F7F60134882328248A4F5F5F4FB8
:1019B0004835510581F6019660587F4F119709F01F
:1019C00047C00E94F1068FE090E00E9450060F5F32
:1019D0001F4F0931110509F041CF772011F02F9ADF
:1019E0002D9880E991E00E9450060E944E0681E009
:1019F00090E00E94F80680FF39CF8AE090E00E94D4
:101A0000F8069FEF980F9E3F08F030CF22E330E0BA
:101A100030936D0120936C0128E330E030936F0127
:101A200020936E010BE010E0682F86EE95E00E9497
:101A30005D06C8010E94F8060F5F1F4F01311105B6
:101A400099F70E94F10688EE93E00E9450060ECFAF
:101A5000A1E0B0E06CCF90916901F42FF91BF03157
:101A600038F4FF3009F42BCF83BE889513BE27CFFF
:101A7000909268014093690120916601309167015D
:101A80002F5F3F4F3093670120936601F60181116C
:101A90008FEF002481938193819381930394D1F7F5
:101AA00010926D0110926C01B0926F01A0926E01C4
:101AB0008FE896E00E94D306809100019091010189
:101AC0001C8A1B8A1E8A1D8A188E1F8A4AE0BE0144
:101AD0006F5F7F4F0E943B0EBE016F5F7F4FCE0155
:101AE00043960E9455071A8219821C821B821E820D
:101AF0001D8249E050E06CE371E0CE0101960E9446
:101B000034076B887C886114710409F46BC00F89F9
:101B1000188D01151105B9F08D819E81080F191FCF
:101B2000B801CE0101960E94FA06882309F45AC032
:101B300029813A818D819E81B301820F931F0E947A
:101B4000AE101E830D83BE016F5F7F4FCE0149969D
:101B50000E945F07CE0101960E947907CE0143964D
:101B60000E947907BE01675E7F4FCE0101960E94F9
:101B70005F070D811E810B5F1F4FB801CE010196DB
:101B80000E94FA06811133C0CE0101960E942207FD
:101B9000BE016F5F7F4FCE0143960E945F07CE016B
:101BA00001960E947907CE0143960E943B068091E0
:101BB0007001882349F18FE796E00E94D306809157
:101BC0000001909101010B9714F0909270010E9416
:101BD000F106CE0143960E947907CE0149960E94F4
:101BE00079076DCECE0101960E942207ACCF2981E4
:101BF0003A818D819E8166E471E0820F931F0E947D
:101C0000AE101E830D83C4CF10916B0110936A0137
:101C10000E94550680936B0113FD02C083FD09C02D
:101C200012FF17C080EE95E00E943B0689E696E021
:101C3000C4CF6CE471E080EE95E00E94550780917E
:101C4000000190910101029690930101809300019F
:101C5000E9CF82FFE7CF6BE571E080EE95E00E946F
:101C6000550780910001909101010197EDCF80EE21
:101C700095E00C947907BB274A3031F4992322F47C
:101C8000BDE2909581959F4F0C94470EBB27FB01B9
:101C90005527AA27880F991FAA1FA41710F0A41B65
:101CA00083955051B9F7A05DAA3308F0A95DA193BF
:101CB000009779F7B111B1931192CB010C94600E9A
:101CC000DC01FC01672F71917723E1F7329704C0A3
:101CD0007C916D9370836291AE17BF07C8F308952E
:101CE000F999FECF92BD81BDF89A992780B50895E4
:101CF000262FF999FECF1FBA92BD81BD20BD0FB628
:101D0000F894FA9AF99A0FBE019608952F923F928D
:101D10004F925F926F927F928F929F92AF92BF92FB
:101D2000CF92DF92EF92FF920F931F93CF93DF93A7
:101D3000CDB7DEB7CA1BDB0B0FB6F894DEBF0FBE04
:101D4000CDBF09942A88398848885F846E847D8451
:101D50008C849B84AA84B984C884DF80EE80FD8053
:101D60000C811B81AA81B981CE0FD11D0FB6F894C9
:101D7000DEBF0FBECDBFED010895EE0FFF1F059032
:101D8000F491E02D09940F931F93CF93DF9382304A
:101D9000910510F482E090E0E091EC05F091ED0502
:101DA00030E020E0B0E0A0E0309799F42115310553
:101DB00009F44AC0281B390B24303105D8F58A8133
:101DC0009B816115710589F1FB0193838283FE017B
:101DD00011C0408151810281138148175907E0F0F9
:101DE0004817590799F4109761F012960C931297BF
:101DF00013961C933296CF01DF91CF911F910F91D3
:101E000008950093EC051093ED05F4CF21153105ED
:101E100051F04217530738F0A901DB019A01BD01C7
:101E2000DF01F801C1CFEF01F9CF9093ED05809369
:101E3000EC05CDCFFE01E20FF31F81939193225069
:101E4000310939832883D7CF2091EA053091EB05FA
:101E5000232B41F420911001309111013093EB05B7
:101E60002093EA0520910E0130910F0121153105D3
:101E700041F42DB73EB74091120150911301241B3C
:101E8000350BE091EA05F091EB05E217F307A0F4BA
:101E90002E1B3F0B2817390778F0AC014E5F5F4FC0
:101EA0002417350748F04E0F5F1F5093EB05409302
:101EB000EA05819391939FCFF0E0E0E09CCFCF9330
:101EC000DF930097E9F0FC01329713821282A09110
:101ED000EC05B091ED05ED0130E020E01097A1F4A4
:101EE00020813181820F931F2091EA053091EB050B
:101EF0002817390709F061C0F093EB05E093EA0574
:101F0000DF91CF910895EA01CE17DF07E8F54A8106
:101F10005B819E0141155105B1F7E901FB83EA831D
:101F200049915991C40FD51FEC17FD0761F48081C9
:101F300091810296840F951FE9019983888382819C
:101F400093819B838A83F0E0E0E012968D919C91CF
:101F500013970097B9F52D913C911197CD010296F9
:101F6000820F931F2091EA053091EB05281739075E
:101F700039F6309751F51092ED051092EC05B093BB
:101F8000EB05A093EA05BCCFD383C2834081518186
:101F9000840F951FC817D90761F44E5F5F4F888182
:101FA0009981480F591F518340838A819B81938374
:101FB00082832115310509F0B0CFF093ED05E09350
:101FC000EC059ECFFD01DC01C0CF13821282D7CF7A
:101FD000B0E0A0E0EEEEFFE00C94880E8C010097DC
:101FE00051F4CB010E94C30E8C01C801CDB7DEB7FE
:101FF000E0E10C94A40EFC01E60FF71F9C012250B7
:102000003109E217F30708F49DC0D901CD91DC91A5
:102010001197C617D70798F0C530D10530F3CE0118
:1020200004978617970708F3C61BD70B2297C1930F
:10203000D1936D937C93CF010E945F0FD6CF5B014C
:10204000AC1ABD0A4C018C0E9D1EA091EC05B091FE
:10205000ED05512C412CF12CE12C109731F580919C
:10206000EA059091EB058815990509F05CC04616C4
:10207000570608F058C080910E0190910F0100970B
:1020800041F48DB79EB74091120150911301841B0A
:10209000950BE817F90708F055C0F093EB05E093AE
:1020A000EA05F90171836083A0CF8D919C9111970E
:1020B00012966C90129713967C901397A815B905F9
:1020C00059F56C0142E0C40ED11CCA14DB0420F1A6
:1020D000AC014A195B09DA011296159780F0628209
:1020E000738251834083D9016D937C93E114F10491
:1020F00071F0D7011396FC93EE93129776CF229648
:102100008C0F9D1FF90191838083F301EFCFF09332
:10211000ED05E093EC0569CF4816590608F42C014B
:102120007D01D3019ACFCB010E94C30E7C010097A1
:1021300049F0AE01B8010E94A510C8010E945F0FCE
:10214000870153CF10E000E050CFFB01DC0102C05B
:1021500001900D9241505040D8F70895FB01DC01E9
:1021600001900D920020E1F7089513E0CDE8D3E04F
:1021700004C0FE010E94BD0E2196CE38D107C9F7DA
:04218000F894FFCF01
:102184000100FFFFFFFF00E100000000000000006D
:10219400EE05800000C180810000000000000016F0
:1021A40004810537042C047D043B04590400000019
:1021B400005D060606F506F4060D0A00205765695B
:1021C4006768743A200020746F6E73003E20426F7B
:1021D400756E747920656174656E00436174206264
:0621E40075727374000027
:00000001FF
